{"abi":[{"type":"receive","stateMutability":"payable"},{"type":"function","name":"callBuy","inputs":[{"name":"auction","type":"address","internalType":"address"},{"name":"price","type":"uint256","internalType":"uint256"},{"name":"index","type":"uint256","internalType":"uint256"}],"outputs":[],"stateMutability":"nonpayable"},{"type":"function","name":"callWithdrawIncome","inputs":[{"name":"auction","type":"address","internalType":"address"},{"name":"amount","type":"uint64","internalType":"uint64"}],"outputs":[],"stateMutability":"payable"},{"type":"function","name":"callWithdrawRefund","inputs":[{"name":"auction","type":"address","internalType":"address"}],"outputs":[],"stateMutability":"payable"},{"type":"function","name":"getBalance","inputs":[],"outputs":[{"name":"","type":"uint256","internalType":"uint256"}],"stateMutability":"view"},{"type":"function","name":"getTransfer","inputs":[],"outputs":[],"stateMutability":"payable"},{"type":"function","name":"setRevertFlag","inputs":[{"name":"state","type":"bool","internalType":"bool"}],"outputs":[],"stateMutability":"nonpayable"}],"bytecode":{"object":"0x6080604052348015600e575f5ffd5b506104c88061001c5f395ff3fe608060405260043610610057575f3560e01c806312065fe0146100a9578063381ba140146100c85780634ce0b529146100f4578063b87141bf146100a3578063d747dbe114610107578063d9b145bd14610126575f5ffd5b366100a5575f5460ff166100a35760405162461bcd60e51b815260206004820152600e60248201526d0a4cad4cac6e840c2d8d8408aa8960931b60448201526064015b60405180910390fd5b005b5f5ffd5b3480156100b4575f5ffd5b504760405190815260200160405180910390f35b3480156100d3575f5ffd5b506100a36100e23660046103b1565b5f805460ff1916911515919091179055565b6100a36101023660046103f2565b610139565b348015610112575f5ffd5b506100a361012136600461040b565b6101fe565b6100a361013436600461043b565b6102d4565b60408051600481526024810182526020810180516001600160e01b0316637edbceb160e01b17905290515f916001600160a01b0384169161017a919061047c565b5f604051808303815f865af19150503d805f81146101b3576040519150601f19603f3d011682016040523d82523d5f602084013e6101b8565b606091505b50509050806101fa5760405162461bcd60e51b815260206004820152600e60248201526d2bb4ba34323930bb9032b93937b960911b604482015260640161009a565b5050565b5f836001600160a01b0316838360405160240161021d91815260200190565b60408051601f198184030181529181526020820180516001600160e01b0316636cb504a560e11b17905251610252919061047c565b5f6040518083038185875af1925050503d805f811461028c576040519150601f19603f3d011682016040523d82523d5f602084013e610291565b606091505b50509050806102ce5760405162461bcd60e51b8152602060048201526009602482015268213abc9032b93937b960b91b604482015260640161009a565b50505050565b60405167ffffffffffffffff821660248201525f906001600160a01b0384169060440160408051601f198184030181529181526020820180516001600160e01b03166385f699f760e01b1790525161032c919061047c565b5f604051808303815f865af19150503d805f8114610365576040519150601f19603f3d011682016040523d82523d5f602084013e61036a565b606091505b50509050806103ac5760405162461bcd60e51b815260206004820152600e60248201526d2bb4ba34323930bb9032b93937b960911b604482015260640161009a565b505050565b5f602082840312156103c1575f5ffd5b813580151581146103d0575f5ffd5b9392505050565b80356001600160a01b03811681146103ed575f5ffd5b919050565b5f60208284031215610402575f5ffd5b6103d0826103d7565b5f5f5f6060848603121561041d575f5ffd5b610426846103d7565b95602085013595506040909401359392505050565b5f5f6040838503121561044c575f5ffd5b610455836103d7565b9150602083013567ffffffffffffffff81168114610471575f5ffd5b809150509250929050565b5f82518060208501845e5f92019182525091905056fea26469706673582212201a90c05279b74a731934ef0b5962b934359783fee22cbf58d1ee972e483e2ff264736f6c634300081e0033","linkReferences":{}},"methodIdentifiers":{"callBuy(address,uint256,uint256)":"d747dbe1","callWithdrawIncome(address,uint64)":"d9b145bd","callWithdrawRefund(address)":"4ce0b529","getBalance()":"12065fe0","getTransfer()":"b87141bf","setRevertFlag(bool)":"381ba140"},"id":1}