{"abi":[{"type":"constructor","inputs":[],"stateMutability":"nonpayable"},{"type":"function","name":"auctions","inputs":[{"name":"index","type":"uint256","internalType":"uint256"}],"outputs":[{"name":"seller","type":"address","internalType":"address payable"},{"name":"startPrice","type":"uint64","internalType":"uint64"},{"name":"finalPrice","type":"uint64","internalType":"uint64"},{"name":"discountRate","type":"uint64","internalType":"uint64"},{"name":"startTime","type":"uint32","internalType":"uint32"},{"name":"endTime","type":"uint32","internalType":"uint32"},{"name":"description","type":"string","internalType":"string"},{"name":"stopped","type":"bool","internalType":"bool"}],"stateMutability":"view"},{"type":"function","name":"buy","inputs":[{"name":"index","type":"uint256","internalType":"uint256"}],"outputs":[],"stateMutability":"payable"},{"type":"function","name":"counter","inputs":[],"outputs":[{"name":"","type":"uint256","internalType":"uint256"}],"stateMutability":"view"},{"type":"function","name":"createAuction","inputs":[{"name":"_startPrice","type":"uint32","internalType":"uint32"},{"name":"_discountRate","type":"uint64","internalType":"uint64"},{"name":"_duration","type":"uint32","internalType":"uint32"},{"name":"_description","type":"string","internalType":"string"}],"outputs":[],"stateMutability":"nonpayable"},{"type":"function","name":"getLot","inputs":[{"name":"index","type":"uint256","internalType":"uint256"}],"outputs":[{"name":"","type":"tuple","internalType":"struct Auction.Lot","components":[{"name":"seller","type":"address","internalType":"address payable"},{"name":"startPrice","type":"uint64","internalType":"uint64"},{"name":"finalPrice","type":"uint64","internalType":"uint64"},{"name":"discountRate","type":"uint64","internalType":"uint64"},{"name":"startTime","type":"uint32","internalType":"uint32"},{"name":"endTime","type":"uint32","internalType":"uint32"},{"name":"description","type":"string","internalType":"string"},{"name":"stopped","type":"bool","internalType":"bool"}]}],"stateMutability":"view"},{"type":"function","name":"getPrice","inputs":[{"name":"index","type":"uint256","internalType":"uint256"}],"outputs":[{"name":"","type":"uint64","internalType":"uint64"}],"stateMutability":"view"},{"type":"function","name":"withdrawIncomes","inputs":[{"name":"amount","type":"uint64","internalType":"uint64"}],"outputs":[],"stateMutability":"nonpayable"},{"type":"function","name":"withdrawPending","inputs":[],"outputs":[],"stateMutability":"nonpayable"},{"type":"event","name":"AuctionEnded","inputs":[{"name":"index","type":"uint256","indexed":true,"internalType":"uint256"},{"name":"finalPrice","type":"uint64","indexed":false,"internalType":"uint64"},{"name":"buyer","type":"address","indexed":true,"internalType":"address"}],"anonymous":false},{"type":"event","name":"MoneyTrasferFailed","inputs":[{"name":"index","type":"uint256","indexed":true,"internalType":"uint256"},{"name":"recipient","type":"address","indexed":true,"internalType":"address"},{"name":"amount","type":"uint256","indexed":false,"internalType":"uint256"},{"name":"reason","type":"bytes","indexed":false,"internalType":"bytes"}],"anonymous":false},{"type":"event","name":"NewAuctionCreated","inputs":[{"name":"index","type":"uint256","indexed":true,"internalType":"uint256"},{"name":"description","type":"string","indexed":false,"internalType":"string"},{"name":"startPrice","type":"uint32","indexed":false,"internalType":"uint32"},{"name":"duration","type":"uint32","indexed":false,"internalType":"uint32"}],"anonymous":false},{"type":"error","name":"ExpiredTime","inputs":[{"name":"index","type":"uint256","internalType":"uint256"}]},{"type":"error","name":"InfucientFunds","inputs":[{"name":"index","type":"uint256","internalType":"uint256"},{"name":"value","type":"uint256","internalType":"uint256"},{"name":"price","type":"uint256","internalType":"uint256"}]},{"type":"error","name":"InvalidStartPrice","inputs":[{"name":"startPrice","type":"uint64","internalType":"uint64"},{"name":"minPriceLimit","type":"uint64","internalType":"uint64"}]},{"type":"error","name":"NonExistentLot","inputs":[{"name":"index","type":"uint256","internalType":"uint256"}]},{"type":"error","name":"NotAnOwner","inputs":[{"name":"recipient","type":"address","internalType":"address"}]},{"type":"error","name":"NotEnoughFunds","inputs":[{"name":"amount","type":"uint256","internalType":"uint256"}]},{"type":"error","name":"RequestToStoppedAuction","inputs":[{"name":"index","type":"uint256","internalType":"uint256"}]},{"type":"error","name":"TransferFailed","inputs":[{"name":"recipient","type":"address","internalType":"address"},{"name":"amount","type":"uint256","internalType":"uint256"}]}],"bytecode":{"object":"0x60a0604052600a6080523480156013575f5ffd5b505f80546001600160a01b031916331790556080516114a461003d5f395f610b7201526114a45ff3fe608060405260043610610079575f3560e01c806385f699f71161004c57806385f699f714610111578063ab995d1214610130578063d96a094a1461015c578063e75722301461016f575f5ffd5b8063571a26a01461007d57806361bc221a146100b95780637edbceb1146100dc57806380a73bc1146100f2575b5f5ffd5b348015610088575f5ffd5b5061009c610097366004610f95565b6101a6565b6040516100b0989796959493929190610fda565b60405180910390f35b3480156100c4575f5ffd5b506100ce60015481565b6040519081526020016100b0565b3480156100e7575f5ffd5b506100f061029c565b005b3480156100fd575f5ffd5b506100f061010c366004611076565b610374565b34801561011c575f5ffd5b506100f061012b366004611110565b6105d5565b34801561013b575f5ffd5b5061014f61014a366004610f95565b6106d3565b6040516100b09190611130565b6100f061016a366004610f95565b610865565b34801561017a575f5ffd5b5061018e610189366004610f95565b610df4565b6040516001600160401b0390911681526020016100b0565b600260208190525f91825260409091208054600182015492820180546001600160a01b038316946001600160401b03600160a01b9485900481169582821695600160401b84049092169463ffffffff600160801b850481169593909404909316929091610212906111e4565b80601f016020809104026020016040519081016040528092919081815260200182805461023e906111e4565b80156102895780601f1061026057610100808354040283529160200191610289565b820191905f5260205f20905b81548152906001019060200180831161026c57829003601f168201915b5050506003909301549192505060ff1688565b335f90815260036020526040812054908080836102e257604051632cf3060160e21b81526004810193909352602483019190915260448201526064015b60405180910390fd5b5050335f818152600360205260408082208290555190925083908381818185875af1925050503d805f8114610332576040519150601f19603f3d011682016040523d82523d5f602084013e610337565b606091505b50509050803383909161036e57604051630e21dcbb60e11b81526001600160a01b03909216600483015260248201526044016102d9565b50505050565b5f63ffffffff841615610387578361038c565b6202a3005b905061039e63ffffffff821686611230565b6001600160401b03168663ffffffff161015868263ffffffff16876103c39190611230565b90916103f95760405163259a1f1b60e21b815263ffffffff90921660048301526001600160401b031660248201526044016102d9565b5050604080516101008101825233815263ffffffff80891660208301819052928201929092526001600160401b03871660608201524291821660808201529060a08201906104479084611259565b63ffffffff16815260200184848080601f0160208091040260200160405190810160405280939291908181526020018383808284375f9201829052509385525050506020918201819052600180548252600280845260409283902085518154958701516001600160a01b039091166001600160e01b031990961695909517600160a01b6001600160401b0396871681029190911782559386015192810180546060880151608089015160a08a01519689166001600160801b031990931692909217600160401b91909816029690961767ffffffffffffffff60801b1916600160801b63ffffffff9788160263ffffffff60a01b1916179590931690930293909317905560c0830151909182019061055e90826112db565b5060e091909101516003909101805460ff19169115159190911790556001546040517fcf867c16ca144276e1f875da85004e7a3a931cf3349ae17af97e9761fbd7545a906105b390869086908b908790611395565b60405180910390a260015f81546105c9906113d8565b90915550505050505050565b5f5433906001600160a01b0316811461060d5760405163351c880f60e01b81526001600160a01b0390911660048201526024016102d9565b5080476001600160401b038216111561064557604051638228b9cb60e01b81526001600160401b0390911660048201526024016102d9565b506040515f9033906001600160401b038416908381818185875af1925050503d805f811461068e576040519150601f19603f3d011682016040523d82523d5f602084013e610693565b606091505b50509050803383909161036e57604051630e21dcbb60e11b81526001600160a01b0390921660048301526001600160401b031660248201526044016102d9565b60408051610100810182525f8082526020820181905291810182905260608082018390526080820183905260a0820183905260c082015260e0810191909152600154821115829061073a5760405163a4a16cb560e01b81526004016102d991815260200190565b505f8281526002602081815260409283902083516101008101855281546001600160a01b03811682526001600160401b03600160a01b91829004811694830194909452600183015480851696830196909652600160401b8604909316606082015263ffffffff600160801b8604811660808301529290940490911660a0840152908101805460c0840191906107ce906111e4565b80601f01602080910402602001604051908101604052809291908181526020018280546107fa906111e4565b80156108455780601f1061081c57610100808354040283529160200191610845565b820191905f5260205f20905b81548152906001019060200180831161082857829003601f168201915b50505091835250506003919091015460ff16151560209091015292915050565b600154811115819061088d5760405163a4a16cb560e01b81526004016102d991815260200190565b505f81815260026020818152604080842081516101008101835281546001600160a01b03811682526001600160401b03600160a01b91829004811695830195909552600183015480861694830194909452600160401b8404909416606082015263ffffffff600160801b8404811660808301529390920490921660a0820152918101805460c084019190610920906111e4565b80601f016020809104026020016040519081016040528092919081815260200182805461094c906111e4565b80156109975780601f1061096e57610100808354040283529160200191610997565b820191905f5260205f20905b81548152906001019060200180831161097a57829003601f168201915b50505091835250506003919091015460ff16151560209091015260e08101519091508290156109dc576040516303abd07760e11b81526004016102d991815260200190565b508060a0015163ffffffff1642108290610a0c5760405163021ac03160e01b81526004016102d991815260200190565b505f610a1783610df4565b90508234826001600160401b038116821015610a6057604051632cf3060160e21b8152600481019390935260248301919091526001600160401b031660448201526064016102d9565b5050600160e0840152506001600160401b038116604083018190525f90610a8790346113f0565b90508015610b65576040515f90339083908381818185875af1925050503d805f8114610ace576040519150601f19603f3d011682016040523d82523d5f602084013e610ad3565b606091505b5050905080610b6357335f9081526003602052604081208054849290610afa908490611403565b9091555050604051339086907f066b6387940c46e335b045f0d30ec26b7e8c42aada958a5fac0d5ed1eadff85290610b5a90868152604060208201819052600d908201526c1c99599d5b990819985a5b1959609a1b606082015260800190565b60405180910390a35b505b5f6064610b9863ffffffff7f00000000000000000000000000000000000000000000000000000000000000001685611230565b610ba29190611416565b610bac908461144f565b90505f845f01516001600160a01b0316826001600160401b03166040515f6040518083038185875af1925050503d805f8114610c03576040519150601f19603f3d011682016040523d82523d5f602084013e610c08565b606091505b5050905080610cc05784516001600160a01b03165f90815260036020526040812080546001600160401b0385169290610c42908490611403565b90915550508451604080516001600160401b038516815260208101829052601581830152741a5b98dbdb481d1c985b9cd9995c8819985a5b1959605a1b606082015290516001600160a01b039092169188917f066b6387940c46e335b045f0d30ec26b7e8c42aada958a5fac0d5ed1eadff852919081900360800190a35b5f8681526002602081815260409283902088518154928a01516001600160a01b039091166001600160e01b031990931692909217600160a01b6001600160401b0393841681029190911782559389015160018201805460608c015160808d015160a08e01519487166001600160801b031990931692909217600160401b91909616029490941767ffffffffffffffff60801b1916600160801b63ffffffff9586160263ffffffff60a01b191617939091169094029190911790925560c0870151879291820190610d9090826112db565b5060e091909101516003909101805460ff19169115159190911790556040516001600160401b0385168152339087907fb18fe0f0d525e34bebfe904fb837164e6ca6b4ce83229fd9a5bd214fecb4ab9a9060200160405180910390a3505050505050565b5f81815260026020818152604080842081516101008101835281546001600160a01b03811682526001600160401b03600160a01b91829004811695830195909552600183015480861694830194909452600160401b8404909416606082015263ffffffff600160801b8404811660808301529390920490921660a082015291810180548493929160c0840191610e89906111e4565b80601f0160208091040260200160405190810160405280929190818152602001828054610eb5906111e4565b8015610f005780601f10610ed757610100808354040283529160200191610f00565b820191905f5260205f20905b815481529060010190602001808311610ee357829003601f168201915b50505091835250506003919091015460ff16151560209091015260e081015190915083901515600103610f49576040516303abd07760e11b81526004016102d991815260200190565b505f816080015163ffffffff1642610f6191906113f0565b90505f8163ffffffff168360600151610f7a9190611230565b9050808360200151610f8c919061144f565b95945050505050565b5f60208284031215610fa5575f5ffd5b5035919050565b5f81518084528060208401602086015e5f602082860101526020601f19601f83011685010191505092915050565b6001600160a01b03891681526001600160401b03888116602083015287811660408301528616606082015263ffffffff8581166080830152841660a082015261010060c082018190525f9061103190830185610fac565b905082151560e08301529998505050505050505050565b803563ffffffff8116811461105b575f5ffd5b919050565b80356001600160401b038116811461105b575f5ffd5b5f5f5f5f5f6080868803121561108a575f5ffd5b61109386611048565b94506110a160208701611060565b93506110af60408701611048565b925060608601356001600160401b038111156110c9575f5ffd5b8601601f810188136110d9575f5ffd5b80356001600160401b038111156110ee575f5ffd5b8860208284010111156110ff575f5ffd5b959894975092955050506020019190565b5f60208284031215611120575f5ffd5b61112982611060565b9392505050565b6020815260018060a01b0382511660208201526001600160401b0360208301511660408201525f604083015161117160608401826001600160401b03169052565b5060608301516001600160401b038116608084015250608083015163ffffffff811660a08401525060a083015163ffffffff811660c08401525060c083015161010060e08401526111c6610120840182610fac565b905060e08401516111dc61010085018215159052565b509392505050565b600181811c908216806111f857607f821691505b60208210810361121657634e487b7160e01b5f52602260045260245ffd5b50919050565b634e487b7160e01b5f52601160045260245ffd5b6001600160401b0381811683821602908116908181146112525761125261121c565b5092915050565b63ffffffff81811683821601908111156112755761127561121c565b92915050565b634e487b7160e01b5f52604160045260245ffd5b601f8211156112d657805f5260205f20601f840160051c810160208510156112b45750805b601f840160051c820191505b818110156112d3575f81556001016112c0565b50505b505050565b81516001600160401b038111156112f4576112f461127b565b6113088161130284546111e4565b8461128f565b6020601f82116001811461133a575f83156113235750848201515b5f19600385901b1c1916600184901b1784556112d3565b5f84815260208120601f198516915b828110156113695787850151825560209485019460019092019101611349565b508482101561138657868401515f19600387901b60f8161c191681555b50505050600190811b01905550565b60608152836060820152838560808301375f608085830181019190915263ffffffff9384166020830152919092166040830152601f909201601f19160101919050565b5f600182016113e9576113e961121c565b5060010190565b818103818111156112755761127561121c565b808201808211156112755761127561121c565b5f6001600160401b0383168061143a57634e487b7160e01b5f52601260045260245ffd5b806001600160401b0384160491505092915050565b6001600160401b0382811682821603908111156112755761127561121c56fea26469706673582212208b32508cc2cb8dc2ecb20559fd6caf1f1d89c70d2105ae7caca66d618971785464736f6c634300081e0033","linkReferences":{}},"methodIdentifiers":{"auctions(uint256)":"571a26a0","buy(uint256)":"d96a094a","counter()":"61bc221a","createAuction(uint32,uint64,uint32,string)":"80a73bc1","getLot(uint256)":"ab995d12","getPrice(uint256)":"e7572230","withdrawIncomes(uint64)":"85f699f7","withdrawPending()":"7edbceb1"},"id":0}